:100000000010002045140000414700004147000057
:1000100041470000414700004147000041470000C0
:1000200041470000414700004147000041470000B0
:1000300041470000414700004147000041470000A0
:100040004147000041470000414700004147000090
:100050004147000041470000414700004147000080
:100060004147000041470000414700004147000070
:100070003135000041470000414700004147000082
:100080004147000041470000414700004147000050
:100090004147000041470000414700004147000040
:1000A00041470000291700000917000041470000E0
:1000B0004147000041470000414700004147000020
:1000C0004147000041470000414700004147000010
:1000D0004147000041470000414700004147000000
:1000E00041470000414700004147000041470000F0
:1000F00041470000414700004147000041470000E0
:1001000041470000414700004147000041470000CF
:1001100041470000414700004147000041470000BF
:1001200041470000414700004147000041470000AF
:10013000414700004147000041470000414700009F
:10014000013800D0FCE770471FB5B5EEC00AF1EEEC
:1001500010FA044627D4DFED1A7AB4EEE70AF1EE7E
:1001600010FA20DC10EE100A03F08CFB10A3D3E988
:10017000002303F027FA10A3D3E9002303F004FDC2
:1001800003F00AFE07EE900AFCEEE77A0023CDEDBD
:10019000037A0093E0220E2120469DF80C3004F0F3
:1001A00038FA04B010BD0020FBE700BFAFF30080B9
:1001B0009A99999999993C40CDCCCCCCCCCC1C4007
:1001C0000000964300000000F7B5B5EEC00AF1EE5E
:1001D00010FA044602D5002003B0F0BDDFED227A0C
:1001E000B4EEE70AF1EE10FAF5DC10EE100A03F0B7
:1001F00049FB9FED171B9FED180B06460F4600F0BD
:1002000083F817A3D3E9002351EC100B03F092FB02
:1002100032463B4603F08EFB02460B460020134954
:1002200003F0B2FC03F098FD002586B2C0F3C713BB
:100230002A460A212046009504F0EBF90028CAD08E
:1002400080220B2120460095F3B204F0E2F9C3E7C7
:1002500000000000000022C0000000000000244058
:10026000E17A14AE47D594400000FA430000F03F15
:1002700070B52DED028B82B0B5EEC00AF1EE10FA2A
:100280000446B0EE408A04D5002002B0BDEC028BDB
:1002900070BDDFED1B7AB4EEE70AF1EE10FAF3DC85
:1002A0000E2104F081F940F01F03DBB2043307EEA6
:1002B000903AF8EEE77A67EE887A17EE900A03F044
:1002C000E1FA0DA3D3E9002303F05EFC03F044FD43
:1002D000002586B2C3B22A4610212046009504F0BC
:1002E00098F90028D0D02A460F2120460095330ADD
:1002F00004F08FF9C9E700BF87A757CA32C4F93F96
:100300000000484200000000F8B555EC114B2DEDFF
:10031000028B57EC106B00F06FF822462B462046FC
:100320002946B0EE408AF0EE608A04F017F978B9F9
:10033000002200233046394604F0DEF8F0B10022F6
:1003400000232046294604F0D7F840B19FED288BC2
:10035000B0EE480AF0EE680ABDEC028BF8BD45EC41
:10036000104B03F02FFF0028F2D00022002320467C
:10037000294604F0CBF80028EAD02EE0B0EE480A77
:10038000F0EE680A03F01EFFA0B10022002351EC3A
:10039000180B04F0B1F80028DAD047EC106B03F02A
:1003A00011FF0028D4D045EC104B03F00BFF0028C0
:1003B000CED012E047EC106B03F004FF0028E4D02D
:1003C00045EC104B03F0FEFE0028DED053EC182B5A
:1003D00051EC180B04F0C2F820B904F031F82223D4
:1003E0000360B5E704F02CF821230360B0E700BFF9
:1003F000000000000000F03F2DE9F04F55EC114BDC
:1004000025F0004393B053EA040057EC106B12D16F
:10041000B31987F4002246495241984291411ED2B5
:1004200022462B463046394603F0CEF841EC100BFD
:1004300013B0BDE8F08F3F4827F0004ABB46B046F6
:10044000824511D93C4A5A4452EA0802E8D123199C
:1004500085F40021364849419A428841E0D39FED16
:10046000320B13B0BDE8F08F29462246504601D129
:10047000002ED5D1DFF8BCC06345E3D801D1002AF6
:10048000E0D1BBF1000F1FDB002A5DD1DFF8A4C073
:1004900063450AD09146294A934240F05984002985
:1004A000C0F2188547EC106BC2E7234B534453EA64
:1004B0000803D4D0224B9A4540F2D9840029C0F2D7
:1004C000528545EC104BB3E7DFF878C0634540F246
:1004D0008483002A40F08D83164A9342E5D04FF082
:1004E000020904910293009047EC106B03F078FE30
:1004F0000098029B0499B8F1000F00F04D834FEA79
:10050000DB7808F1FF3859EA080231D132463B4620
:100510001046194603F056F802460B4603F034FB2A
:1005200041EC100B84E700BF000000000000F03F2A
:100530000000F0FF0000F07F000010C00000F03F5E
:10054000FFFFEF3FFFFF3F434FF00009049102938D
:10055000009047EC106B03F043FE0098029B049957
:10056000B8F1000F00F018834FEADB7808F1FF388C
:10057000D14A934200F24D83D04B00220BEA030391
:1005800053B9CF4B51EC100B03F0D4F96FF0340298
:1005900041EC100B10EE900A0315C0F31300C94F85
:1005A000A3F2FF3307439A18C74B98420D9240F3CA
:1005B0004A84C64B984240F3A1840132A7F58017C4
:1005C00000260D929FEDA67B8DED087B9FEDA67B0F
:1005D0008DED067B9FEDA27B8DED107B5BEC10AB70
:1005E000DDE906235046394602F0ECFFBB46DDE963
:1005F0000623CDE90A015046394602F0E5FF0246DE
:100600000B460020AF497F1003F0BEFA02460B46AE
:1006100047F00057DDE90A01CDE90E2303F08AF91E
:100620000A46014607F500230020CDE90212CDE974
:100630000412002102460291991906460F460B4604
:100640009DED027B51EC170B8DED007B03F072F9F1
:1006500002460B46DDE90A0102F0B4FFDDE906239C
:10066000CDE90A013046394602F0ACFF02460B469E
:100670005046594602F0A6FFDDE90A67DDE900238E
:1006800003F058F902460B463046394602F09AFF0D
:10069000DDE90E2303F04EF9DDE90467CDE906013B
:1006A00032463B463046394603F044F982468B4693
:1006B0006FA3D3E9002303F03DF96FA3D3E900232F
:1006C00002F082FF52465B4603F034F96CA3D3E993
:1006D000002302F079FF52465B4603F02BF96AA330
:1006E000D3E9002302F070FF52465B4603F022F983
:1006F00067A3D3E9002302F067FF52465B4603F08D
:1007000019F965A3D3E9002302F05EFF06460F4600
:1007100052465B465046594603F00CF902460B46DA
:100720003046394603F006F906460F46DDE900ABD0
:10073000DDE9040152465B4602F046FFDDE906238F
:1007400003F0F8F832463B4602F03EFF52460646BA
:100750000F465B46504659464FF0000A03F0EAF850
:1007600002460B46CDE90A230022594B02F02CFF2A
:1007700032463B4602F028FF8B4652465B46DDE997
:10078000000103F0D7F80022514BCDE9000150469B
:10079000594602F017FFDDE90A2302F013FF024673
:1007A0000B463046394602F00DFFDDE9042303F025
:1007B000C1F806460F4652465B46DDE9060103F0E6
:1007C000B9F802460B463046394602F0FDFE0646B1
:1007D0000F4632463B46DDE9000102F0F5FE8B464E
:1007E00050462FA3D3E9002303F0A4F8DDE900234A
:1007F000CDE900015046594602F0E4FE02460B46A0
:100800003046394602F0DEFE27A3D3E9002303F089
:1008100091F806460F465046594625A3D3E90023D2
:1008200003F088F802460B463046394602F0CCFE0B
:10083000DDE9102302F0C8FE82468B460D9803F0D6
:100840000FF8524606460F465B46DDE90001CDE94A
:1008500004AB02F0B9FEDDE908233BE0AFF3008012
:100860000000000000000000000000000000F03F59
:10087000EF4E454A287ECA3F65DBC9934A86CD3F85
:1008800001411DA96074D13F4D268F515555D53F6B
:10089000FFAB6FDBB66DDB3F033333333333E33F03
:1008A000000000E009C7EE3FFD033ADC09C7EE3F58
:1008B000F5015B14E02F3EBE0000E0410000F07F38
:1008C000000040430000F03F8E98030079B60B0013
:1008D0000000084002F078FE32463B4602F074FE0B
:1008E000002032463B4682468B4602F06BFEDDE935
:1008F000082302F067FEDDE9002302F063FE0246F2
:100900000B46DDE9040102F05DFECDE9040109F1C9
:10091000FF3353EA080300F016829FEDC77B8DED8D
:10092000027B002320462946CDE900450093DDE9FE
:10093000008942464B4602F045FE5B46524602F0B5
:10094000F9FF06460F4622462B46DDE9040102F078
:10095000F1FF02460B463046394602F035FE42466C
:1009600004460D464B4659465046A04602F0E2FF6B
:1009700006460F462046294632463B46A94602F027
:1009800023FEC14B04460D4699428B4640F3B78186
:10099000BE4B0B44034340F0C98240464946A8A3DE
:1009A000D3E9002302F010FE32463B46CDE90001B8
:1009B0002046294602F006FE02460B46DDE900010C
:1009C00003F0C2FD002840F0B1824FF400735B4495
:1009D000AF4CBBF1000F4FF00000C3F30A52C3F35A
:1009E0001301A2F2FF3241F4801144FA02F4C2F181
:1009F000140241FA02FA04EA0301024630460B46A9
:100A0000B8BFCAF1000A394602F0DCFD02460B46C7
:100A100006460F46404649464FEA0A5B02F0D4FDBF
:100A20000D460024294688A3D3E90023204602F07E
:100A300081FF32463B46CDE900012046294602F0BF
:100A4000C1FD02460B464046494602F0BBFD80A36D
:100A5000D3E9002302F06EFF06460F4620462946E2
:100A60007DA3D3E9002302F065FF02460B46304622
:100A7000394602F0A9FD06460F4632463B46DDE9FF
:100A800000894046494602F09FFD424604460D4615
:100A90004B4602F097FD02460B463046394602F0BF
:100AA00091FD2246804689462B462046294602F083
:100AB00041FF06460F466AA3D3E9002302F03AFF3E
:100AC00069A3D3E9002302F07DFD32463B4602F0E4
:100AD00031FF67A3D3E9002302F076FD32463B469F
:100AE00002F028FF64A3D3E9002302F06BFD324635
:100AF0003B4602F01FFF62A3D3E9002302F064FD2E
:100B000032463B4602F016FF02460B462046294677
:100B100002F058FD06460F462046324629463B461F
:100B200002F008FF00224FF08043CDE9000130467B
:100B3000394602F047FD02460B46DDE9000103F0AD
:100B400023F8424606460F464B462046294602F009
:100B5000F1FE42464B4602F037FD02460B46304658
:100B6000394602F02FFD22462B4602F02BFD0246AD
:100B70000B460020474902F025FD0B46594402462A
:100B8000B1F5801FC0F2CA811046DDE9022302F0F0
:100B9000D1FE41EC100B4BE42BF04042DFF8F4C0E7
:100BA000624503D0BAF1000F7FF4A9AC002907DA3F
:100BB0000020384953EC102B02F0E6FF41EC100BFB
:100BC000BBF1000FBFF634AC334B534453EA090377
:100BD00040F0B68153EC102B9AE4DFF8C4C06345B3
:100BE00060D8002A72D1B1F1804F00F07D8191462A
:100BF00077E447EC106B0291009303F0F1FA009B4D
:100C00000299B8F1000F00F05A814FF002094FF03D
:100C10000008224A9342224B40F2AD809A4540F2AE
:100C20002181002940F32181002013B0BDE8F04F5D
:100C300000F08ABAAFF30080000000000000F03F2F
:100C4000FE822B654715973C00000000432EE63FCF
:100C5000EF39FAFE422EE63F396CA80C615C20BEEB
:100C6000D0A4BE726937663EF16BD2C541BDBB3EB2
:100C70002CDE25AF6A56113F93BDBE166CC1663F90
:100C80003E5555555555C53FFFFF8F40000070BF7D
:100C90000000F0FF0000F03F000010C00000F04333
:100CA000FFFFEF3F4FEA235CACF2FF3CBCF1140FB7
:100CB00040F3F380CCF1340C22FA0CFE0EFA0CFC5B
:100CC000944500F05481002A3FF4E4AB009147ECD6
:100CD000106B03F085FA0099B8F1000F7FF416ACA1
:100CE0002BF0404BCA4B9B4503D0BAF1000F7FF469
:100CF0000DAC0029C0F244814FF0000964E721F0F7
:100D00000043DFF81CC3634540F2BE80C14B0B4477
:100D100003430AD132463B4602F054FC42464B465E
:100D200003F008FC00283FF450AE00220023DDE968
:100D3000020103F0EBFB003818BF012013B0BDE83F
:100D4000F04F00F0F9B99FED9E7B8DED027BE8E559
:100D5000B1F1804F00F0C880BBF1000FFFF6C1ABCE
:100D6000AD4A91427FF4BDAB47EC106B13B0BDE8C8
:100D7000F04F03F06BBA9A4574D3A54B9A453FF6F2
:100D800050AF0022A24B51EC100B02F01BFC82462C
:100D90008B468DA3D3E9002302F0CCFD8CA3D3E9CD
:100DA0000023CDE900015046594602F0C3FD002260
:100DB0009A4BCDE902015046594602F0BBFD02466E
:100DC0000B4685A1D1E9000102F0FCFB52465B46CF
:100DD00002F0B0FD02460B4600208F4902F0F2FB04
:100DE00006460F4652465B465046594602F0A2FD63
:100DF00002460B463046394602F09CFD78A3D3E903
:100E0000002302F097FD02460B46DDE9020102F0E5
:100E1000D9FB06460F4632463B46DDE900AB50465D
:100E2000594602F0D1FB002052465B4682468B4673
:100E300002F0C8FB02460B463046394602F0C2FBC0
:100E4000CDE9040163E59FED687B00268DED087B0D
:100E50009FED677B8DED067B9DED087B8DED107B17
:100E6000FFF7BCBB0029FFF6DFAE002066E70029D4
:100E70009FED5D0BBFF6DCAA05F1004300EE104AC2
:100E800000EE903AFFF7D4BA634A934200F28E80A4
:100E9000DDE9002393469246C3E5002A7FF416AFAE
:100EA000CCF1140C43FA0CFE0EFA0CFC9C457FF4BA
:100EB000F1AA0EF0010ECEF10209FFF7ECBA2BF009
:100EC000404B534A934549D0BAF1000F46D04FF0FA
:100ED00002099EE600204E4932463B4602F054FE8F
:100EE00041EC100BFFF7A4BA32463B463046394678
:100EF00002F020FD41EC100BFFF79ABA9FED3E7B0C
:100F00004FF480268DED087B9FED3D7B8DED107BB2
:100F10009FED3D7B8DED067BFFF760BB504643ECBC
:100F2000102B00F081F851EC100B2EE6002200236C
:100F3000DDE9020103F0EAFA003818BF012074E687
:100F4000B9F1010F7FF474AA10EE901A10EE102A76
:100F500001F1004343EC102BFFF76ABA00291ADBBA
:100F60004FF0020930E69FED200BFFF761BA0EF05B
:100F7000010ECEF10209002A3FF48DAAFFF7E6BA6E
:100F800053EC102B0020224902F0FEFD4FF0000927
:100F900041EC100B18E653EC102B00201C4902F01A
:100FA000F3FD4FF0020941EC100B0DE61B154FF459
:100FB0008012A3F2FE3342FA03F308E5AFF3008098
:100FC000000000000000F0BF000000604715F73F80
:100FD00044DF5DF80BAE543E555555555555D53F3C
:100FE000FE822B654715F73F00000000000000005F
:100FF000000000000000F03F0000004003B8E23FA6
:1010000006D0CF43EBFD4C3E000000000000F83F4F
:101010000000F03F00346F3F0000E03F0000D03F91
:10102000FFCB904000000000F8B553EC102B0446B5
:10103000C3F30A50194670BB23F000411046114318
:1010400028D0394D19460022384B02F073FCAC42CF
:1010500002460B4650DBC1F30A5036384CF2503C86
:10106000644522DC044440F2FE7084421DDC002C06
:1010700033DC14F1350F37DB2D48363416462D4B53
:101080000840002240EA04573046394602F052FC3C
:1010900041EC100BF8BD40F2FF7C6045DED11046FC
:1010A00002F092FA41EC100BF8BD002B16A1D1E929
:1010B000000107DB14A3D3E9002302F03BFC41EC61
:1010C000100BF8BD12A1D1E900010FA3D3E9002351
:1010D00002F030FC41EC100BF3E71548084040EA01
:1010E000045343EC102BF8BD002B0BA1D1E90001F8
:1010F00002DA0BA1D1E9000107A3D3E9002302F032
:1011000019FC41EC100BF8BD9C7500883CE4377E5F
:101110009C7500883CE437FE59F3F8C21F6EA501A8
:1011200059F3F8C21F6EA581B03CFFFF0000504389
:10113000FFFF0F800000903C9FED010B03F06AB8A9
:1011400000000000000000109FED010B03F062B8EA
:1011500000000000000000700348044B834202D0EE
:10116000034B03B1184770478813002088130020F1
:1011700000000000064B0749C91A891048BF013119
:10118000491003D0044B0BB101481847704700BF0A
:1011900088130020881300200000000010B5064CC2
:1011A000237843B9FFF7D8FF044B13B10448AFF3DA
:1011B00000800123237010BDE81200200000000011
:1011C000F452000008B5054B1BB105490548AFF3C3
:1011D0000080BDE80840FFF7CDBF00BF0000000061
:1011E00000100020F4520000A3F5803A704700BFC1
:1011F000174B002B08BF134B9D46FFF7F5FF00214F
:101200008B460F461348144A121A03F0EDFA0E4BA0
:10121000002B00D098470D4B002B00D098470020A2
:10122000002104000D000D48002802D00C48AFF347
:10123000008002F0A3FF2000290000F069F802F00E
:101240008BFF00BF0000080000000000000000004D
:101250000010002000100020F0120020000000000C
:101260000000000007B5B5EEC00AF1EE10FA1ED47A
:10127000F1EE087AB4EEE70AF1EE10FA17DC9FED12
:101280000D7AC0EE077AB6EE007A77EE877AFCEE3A
:10129000E77A17EE903AFF2B28BFFF2300220D219B
:1012A0000092DBB203F0B5F903B05DF804FB002057
:1012B000FAE700BF5BB1BF3C07B5B5EEC00AF1EE7F
:1012C00010FA1ED4DFED107AB4EEE70AF1EE10FA50
:1012D00017DC9FED0E7AC0EE077AB6EE007A77EE55
:1012E000877AFCEEE77A17EE903AFF2B28BFFF23B0
:1012F00000220C210092DBB203F08BF903B05DF801
:1013000004FB0020FAE700BF333353405BB1BF3C1E
:1013100000B5ADB003F05BFA4A210AA803F034F936
:1013200018490AA803F06AF900B9FEE700238DF80E
:101330001030154B0593154B0693154B07934FF043
:1013400082430893134B099307AB93E807008DE89A
:10135000070004AB0AA80ECB03F09BF900B9FEE727
:1013600046210AA803F0C5F94FF4FA7002F082F89A
:1013700000210AA803F0BDF94FF4FA7002F07AF8E0
:10138000EEE700BF141300203333B33F9A99B93FFF
:10139000000055430000A04208B501F0CBFD012834
:1013A0000ED10F4B04205A6E4FF480230D49520387
:1013B00058BF0D4A4B6601F51041086258BF53668D
:1013C00002F004F800F02AF803F0FDF901F074FFD0
:1013D00003F0F2F901F080FFBDE8084000F014B816
:1013E000008000500090005000A0005008B5044854
:1013F00003F0E4F9BDE80840024800F0A5B900BFD9
:10140000A85100000013002008B5034803F0D6F9E6
:10141000BDE8084003F081B9A8510000014803F07D
:10142000CDB900BFA85100000348044A0449121A6C
:10143000921003F086B900BF400100004001000097
:10144000F012002008B500F02FF8FFF7EDFF124B67
:1014500012498B4212D30020114B12498B4218D3F0
:10146000FFF7C6FE186850F82240586840F822403E
:10147000013298688242F5D30C33EAE70022F8E79C
:101480001C6844F8220001325C68A242F8D3083399
:10149000E4E70022F8E700BFFC5200000853000018
:1014A000085300000853000070B54FF40041134B7F
:1014B000134A144D9A60D3F8882005F5005442F47D
:1014C0007002C3F88820104A91664FF0FF322266FE
:1014D0004FF6DF7262660222C3F8D020BFF34F8F4F
:1014E000BFF36F8F4FF44036032001F039FF032024
:1014F000E66001F003FF2E6170BD00BF00ED00E06B
:10150000000000000080004400900050014B186073
:10151000704700BF1C130020054B1860054B1B6F64
:1015200003F00703032B01D103F08CB9704700BF10
:1015300024130020008000502DE9F0410C250446C2
:101540004FF00108124E0CB314F001000BD0002034
:1015500024F0010405FB00625768002FF3D0916866
:10156000C0B2B847EFE72246013020284FEA5202C6
:1015700001D0D307F8D508FA00F20F2824EA0204B4
:10158000E8D9103805FB0062B432E5E7BDE8F08128
:101590001810002008B50C4803F010F9192001F0CC
:1015A000C7FE28B1192001F0DBFE192001F0A6FECC
:1015B0001A2001F0BDFE28B11A2001F0D1FE1A2038
:1015C00001F09CFE002008BDA85100002DE9F0416B
:1015D0000E461746044638B991211A4803F0BEF862
:1015E00022252846BDE8F0810F290BD803787BB16E
:1015F000013BDBB2022B05D8134AD35C6278D3409F
:10160000DB0708D495210F4803F0A8F82125E8E767
:1016100040F2FF13F2E70D4BD3F810532DB199218F
:10162000084803F09BF80225DBE703F07BFB8046CC
:101630003A462046314601F0BDFC404603F06DFBC2
:10164000CFE700BF784E0000CB4E000000C0035033
:1016500038B5044628B91348E22103F07FF8222068
:1016600038BD03787BB1013BDBB2022B05D80E4AB3
:10167000D35C6278D340DB0708D40A48E62103F044
:101680006DF82120ECE740F2FF13F2E703F04AFB8C
:101690000546204603F000F9284603F03EFB0020F3
:1016A000DEE700BF784E0000CB4E000038B50446A0
:1016B00028B91348FA2103F051F8222038BD0378E5
:1016C0007BB1013BDBB2022B05D80E4AD35C6278BA
:1016D000D340DB0708D40A48FE2103F03FF821205D
:1016E000ECE740F2FF13F2E703F01CFB054620464F
:1016F00001F028FC284603F010FB0020DEE700BFC5
:10170000784E0000CB4E000008B501F049FC054BB7
:1017100000F0553020F05020C3F82004BDE8084008
:10172000FFF70ABF00E0035008B501F039FC054B94
:1017300000F0AA3020F0A020C3F82004BDE8084043
:10174000FFF7FABE00E0035070B586B0044618B942
:10175000AC21314803F002F82368304A934207D0A5
:101760002F4A934250D12F4803F028F8012503E077
:101770002D4803F023F80025A3880122ADF800309E
:10178000E3880A216846ADF80430FFF71FFF012205
:101790000A2101A8FFF71AFF0A266846FFF786FF0D
:1017A000642001F0DFFE6846FFF752FF642001F07D
:1017B000D9FE013EF1D103212B0103F1A04202F534
:1017C0007032C2F890146079217903F1A04341EAA4
:1017D0000041C2F89414E179A27903F5703342EA2A
:1017E0000142C3F8982440F20113ADF80830E368D1
:1017F00020680493A36802A90393237C8DF8143016
:1018000001F072F906B070BDD121034806B0BDE801
:10181000704002F0A3BF00BFCE4E00000000015A8E
:1018200000800650A0510000A451000038B50546C4
:1018300001F0AEFA044C012801D1013C00D138BDC1
:10184000284601F085F9F6E7E1930400044BD3F84C
:101850008420D206FBD4D3F88400C0F381107047F3
:101860000040005038B5104B0546D3F800310C4607
:1018700003F00303022B0BD0032B0DD0012B0FD150
:1018800002F0FAFF032305B1286004B1236038BDDC
:1018900002F0FCFF0823F6E702F0F4FF0723F2E76B
:1018A00001230020EFE700BF0080005038B5104B47
:1018B0000546D3F820310C4603F00303022B0BD06E
:1018C000032B0DD0012B0FD102F096FF052305B19C
:1018D000286004B1236038BD02F0CEFF0323F6E791
:1018E00002F0C6FF0223F2E701230020EFE700BF6A
:1018F0000080005038B5104B0546D3F840310C46F7
:1019000003F00303022B0BD0032B0DD0012B0FD1BF
:1019100003F0F4F9092305B1286004B1236038BD50
:1019200002F0B4FF0823F6E703F0EBF90B23F2E72C
:1019300001230020EFE700BF0080005038B5104BB6
:101940000546D3F860310C4603F00303022B0BD09D
:10195000032B0DD0012B0FD103F0D0F9092305B1D2
:10196000286004B1236038BD02F090FF0823F6E739
:1019700003F0C7F90B23F2E701230020EFE700BFD4
:101980000080005038B51A4B0546D3F824010C46A8
:1019900000F00700062821D8DFE800F0280410181E
:1019A0001C0C140002F028FF052305B1286004B1C7
:1019B000236038BD02F020FF0623F6E702F05CFF4B
:1019C0000323F2E702F058FF0423EEE702F050FF92
:1019D0000223EAE702F056FF0723E6E7054840F650
:1019E000DB7102F0BBFE00231846DEE70123DCE7D3
:1019F00000800050254F0000F7B50027114B0197DC
:101A0000D3F88041064604F00304012C0D4608D0AB
:101A1000022C12D041F2E6310B4802F09FFE3C4608
:101A200004E0394601A8FFF741FF0F240EB1019BE6
:101A3000336005B12C6003B0F0BD02F019FF0190D6
:101A4000F4E700BF00800050254F000038B5164B6A
:101A50000546D3F800020C4600F00700042819D808
:101A6000DFE800F020030B0F130003F047F9092310
:101A700005B1286004B1236038BD02F007FF0823D8
:101A8000F6E703F03EF90B23F2E702F0DBFE0E234C
:101A9000800AEDE7054841F2A44102F05FFE002311
:101AA0001846E5E70123E3E700800050254F0000DA
:101AB00038B5124B0546D3F840320C4603F0030309
:101AC000022B0BD0032B0DD0012B0FD103F016F9F5
:101AD000092305B1286004B1236038BD02F0D6FEA9
:101AE0000823F6E703F00DF90B23F2E7044841F26F
:101AF0002F4102F033FE00231846EAE70080005031
:101B0000254F000008B5334B98424FD027D8324BB1
:101B1000984245D017D8314B98423ED00AD838B1B8
:101B20002F4B984239D041F2BB312E4802F016FEBD
:101B3000002034E02C4B98422FD02C4B9842F2D10D
:101B40002B4B586E2BE02B4B98422CD003F53713C0
:101B500003F5D8639842E6D1254B986F1FE0264BDA
:101B600098422FD00CD8254B984223D0244B984232
:101B700024D0244B9842D6D11D4BD3F884000EE0DC
:101B8000214B984222D003F5740303F51053984279
:101B9000C9D1174BD3F8980001E0154B986D08BDDB
:101BA000134B186FFBE7124B586FF8E7104BD3F845
:101BB0008000F4E70E4BD3F88800F0E70C4BD3F825
:101BC0008C00ECE70A4BD3F89000E8E7084BD3F819
:101BD0009400E4E780BA8C01405DC60080841E005A
:101BE00040420F00254F000000093D00C0CF6A00B1
:101BF0000080E00F0024F400007E560380D54302ED
:101C0000006CDC020048E8010090D00310B40F4CD7
:101C10000B46D4F8204204F00304012C0ED0022C11
:101C200010D008B1002101600BB100221A6041F20E
:101C3000050107485DF8044B02F090BD5DF8044BC8
:101C4000FFF734BE5DF8044BFFF754BE0080005030
:101C5000254F000010B5B0F5207F34D009D8B0F57D
:101C6000007F2AD003D898B1B0F5C07F10D00024EF
:101C700021E0B0F5607FFAD1154BD3F88030C3F383
:101C800001149B0617D5032C15D04FF426710FE0D5
:101C90000F4B1C6F230B13F00E0FC4F303340AD049
:101CA000072C08D00F2C06D0032C04D04FF422713F
:101CB000084802F053FD601C10BD054BD3F890405E
:101CC000C4F30464F7E7024B1C6FC4F38024F2E70B
:101CD00000800050254F000010B54FF400320E4B2D
:101CE00004469A660020FFF7B5FF604341F6713263
:101CF0000A4C0B4BA04294BF00200120D969DA6343
:101D00009A6822F4401242EA00529A60CA0344BF21
:101D10000022DA6310BD00BF00900050005A62023A
:101D20000000035070B5460904460D460ED140F23E
:101D300035310D4802F012FD334604F01F047DB129
:101D400003F580530122A2401A6070BD012E05D018
:101D5000064B074A022E18BF1346EEE7054BECE789
:101D600003F50053EEE700BF254F000068800050E8
:101D7000608200506480005030B585B00021B0F51D
:101D8000807F0446019100F00F8100F29F8061285E
:101D900000F294801F2805D8002840F0918002F0BE
:101DA00051FDDEE0A0F12004412C00F2898001A366
:101DB00053F824F09F1D00006B1F00009F1D0000C2
:101DC0006B1F0000951F0000951F0000951F00006D
:101DD000951F00006B1F00006B1F0000411F0000DB
:101DE000FB1E0000CB1F0000D51F0000FB1E0000E3
:101DF0006B1F00006B1F00006B1F0000C11E000066
:101E0000C11E0000C11E0000C11E0000C11E000056
:101E1000C11E00009F1F00001D1F00006B1F00005F
:101E20006B1F00006B1F0000E91F0000DF1F000098
:101E30006B1F0000C11E0000C11E0000C11E00007B
:101E4000C11E0000C11E0000C11E0000C11E000016
:101E5000C11E0000C11E0000C11E0000C11E000006
:101E6000C11E0000C11E00009F1D0000C11E000019
:101E70009F1D00009F1D00009F1D0000951F00007A
:101E8000C11E0000C11E0000C11E0000C11E0000D6
:101E9000C11E0000C11E0000C11E0000C11E0000C6
:101EA000C11E0000C11E0000C11E0000C11E0000B6
:101EB000C11E00009F1D00009F1D000080284ED005
:101EC00040F2A4414B4802F049FC4BE0B0F5A06F52
:101ED00065D028D8B0F5607F52D019D8B0F5007F12
:101EE0004ED004D8B0F5C07F3FF459AFE8E7B0F565
:101EF000207F3AD0B0F5407FE2D102F0A3FC044647
:101F00004FF42070FFF7A6FEB4FBF0F4640835E050
:101F1000B0F5806F3ED0B0F5906FD1D1002101A80F
:101F2000FFF730FD1EE0B0F5E06F58D00DD8B0F5EA
:101F3000C06F4AD0B0F5D06F4CD0B0F5B06FBFD104
:101F4000002101A8FFF758FD0CE0B0F5F06F4BD071
:101F5000B0F5086FB4D101A8FFF784FC02E002F0ED
:101F600051FC0190019805B030BD02F06BFC0446B5
:101F70004FF42070FFF76EFEB4FBF0F40194F1E72C
:101F800002F040FC05462046FFF764FEB5FBF0F585
:101F90000195E7E7002101A8FFF788FCE2E70021AF
:101FA00001A8FFF733FEDDE74FF0E02302911B6944
:101FB0005B0705D502F046FC0290029B0193D1E736
:101FC00003A902A8FFF796FCF7E7002101A8FFF795
:101FD00091FCC7E7002101A8FFF738FDC2E7002107
:101FE00001A8FFF765FDBDE7002101A8FFF7A6FCEA
:101FF000B8E700BF254F000008B58020FFF7BCFE02
:10200000034B98429EBF4FF48032024B1A6708BDC3
:10201000005A620200A000501FB503460020B3F52D
:10202000807F019077D026D8382B00F08A800BD89B
:10203000243B092B0FD8092B0DD8DFE803F0676785
:1020400067670C0C5F0C357D522B5FD006D83D2B9B
:1020500039D03E2B7AD040F289514BE0802BFAD117
:102060003D4B1B6F03F00703013B032B40D8DFE818
:1020700003F03D36393BB3F5D06F5DD019D8B3F5D9
:10208000A06F5ED00AD8B3F5806F3FD0B3F5906FE4
:10209000E1D1002001A9FFF775FC33E0B3F5B06F83
:1020A0002CD0B3F5C06FD6D1002001A9FFF722FCD8
:1020B00028E0B3F5006FECD00AD8B3F5E06F45D057
:1020C000B3F5F06FC7D1002001A9FFF737FC19E085
:1020D000B3F5086FBFD101A9FFF7C4FB12E00523D8
:1020E00001930FE00323FBE70723F9E70223F7E758
:1020F00040F2D641194802F031FB03E0002001A96B
:10210000FFF77AFC019805B05DF804FB002001A9F7
:10211000FFF7CCFBF6E74FF0E02302901B695B076B
:1021200005D502F08FFB0C230393039BD8E703A98B
:1021300002A8FFF7DFFBF8E7002001A9FFF786FC04
:10214000E0E7002001A9FFF761FDDBE7002001A91E
:10215000FFF7AEFCD6E700BF00800050254F00001F
:102160004FF48032074B0849586E03F580535A6686
:102170000B6A23F001030B62C3035CBF034B5A6677
:10218000704700BF0080005000C0075000A0005002
:10219000F8B5036804460F2B04D940F68A316C4821
:1021A00002F0DCFA63680F2B04D940F68D316848E1
:1021B00002F0D4FAA3680F2B04D94FF439616448B4
:1021C00002F0CCFA237B0F2B04D940F69331604800
:1021D00002F0C4FA637B0F2B04D940F696315C48B9
:1021E00002F0BCFAA37B3F2B04D940F69931584842
:1021F00002F0B4FAE37B3F2B04D940F69C315448FB
:1022000002F0ACFA2369032B04D940F69F31504801
:1022100002F0A4FA6369032B04D940F6A2314C48BA
:1022200002F09CFAE369012B04D940F6A531484835
:1022300002F094FA8020FFF7EFFE032800F0878079
:102240004FF40022434B02215A6645F60E03424AE0
:10225000C2F88030414B9962012103F580539962A5
:10226000936DD903FCD4D4E900131B0543EA016341
:10227000E17B94F820500B43217BE77E43EA014346
:10228000617B6D0143EA0133A17B43EA8113136152
:102290009169D4E904031B0643EA806301F000411D
:1022A0000B43A17E94F823000B43217E43EA0143B4
:1022B000617E43EA01239361136AE66923F00D030B
:1022C00094F8221043EA8703002E2DD11362966AF8
:1022D00094F8213045EA031326F033052B4343F0ED
:1022E000010393621E4D1C4B9A6D35EA0202FBD12D
:1022F00002221A4DAA621A659A6D5200FCD41A691C
:10230000A56822F4700242EA05521A614FF00042B9
:10231000124B9A6119B9022203F580539A6278B977
:102320000122104B9A620BE0334343F0080313621F
:10233000936A23F0330303432B4343EA410393623D
:1023400094F824301BB1044B074AC3F88020F8BD31
:10235000254F00000090005000C0005000D00050F9
:102360000300014000E00050F1A7FFFF014B93F98B
:1023700000007047EA12002010B543680446072B9E
:1023800004D940F6E6512A4802F0E8F9A368032B85
:1023900004D940F6E851264802F0E0F92378032BEF
:1023A00004D940F6EA51224802F0D8F994F90130F4
:1023B000002B04DA40F6EC511D4802F0CFF94FF43F
:1023C00080011C4A637851664FF4D151022002F516
:1023D000B832516218494F2B48604FF0010028BFB6
:1023E0004F2301F5805148601169C903FCD421785D
:1023F00043EA01235361D4E901131B0143EA01239A
:10240000617B0B43217B43EA41039360E37BA17B28
:102410001B0143EA4113617C0B43217C43EA4103E6
:102420005360A37C13B16FF4D153536210BD00BF4E
:10243000254F00000090005000100250014B188002
:10244000704700BF7A130020014B1880704700BF0F
:102450007813002008B54FF40012184B5A66022377
:10246000174A5360936813F48033FBD1012822D1BB
:1024700002F002FA134B984215D003F5122303F52C
:10248000F863984213D0104B00EB8002400AB3FB74
:10249000F0F3520A0A49CA620B6301234B6200221D
:1024A000074B5A6008BD45F67A13084AF2E745F62D
:1024B0001A03074AEEE75362F1E700BF00900050AD
:1024C0000040025000F0490264666666D8B8050014
:1024D000BBCF050010B5B0F5207F65D00ED8B0F5A4
:1024E000007F4FD003D800B3B0F5C07F1DD04FF4AC
:1024F0004671BDE81040344802F030B9B0F5607F55
:10250000F5D14C1E012C06D9042904D040F2F92142
:102510002D4802F023F92D4AD2F8803023F0300301
:1025200043EA0413C2F8803010BD4C1E012C0AD9B6
:10253000102903D8264BCB40DB0704D440F2CB2133
:10254000214802F00BF902F00BF902F017F94FF4F1
:102550008031204B1D4A1967136F23F4704343EAFF
:102560000433136702F06EF90446FFF76FF9C0F108
:102570000201204602F0FCF800F046F8BDE81040E9
:10258000FFF73ABD4C1E1F2C04D94FF443710E487F
:1025900002F0E4F80D4AD2F8903023F0F85343EA01
:1025A0000463C2F89030BFE74C1E012C04D940F2FE
:1025B0001231054802F0D2F8044A136F23F4806305
:1025C00043EA84231367AFE7254F000000800050E3
:1025D000100101000090005008B50121022000F018
:1025E000DDF84FF42070FFF735FB054B187002F053
:1025F000B7F802F0C3F84FF48032024B1A6708BDF7
:10260000E91200200090005008B54FF4C070FFF7A9
:10261000B3FBBDE808400449884294BF0121022170
:102620004FF42070FFF756BF80F0FA0238B5044629
:1026300002F008F90546FFF709F9C0F10201284642
:1026400002F096F80121002000F0FCF82CB1FFF711
:10265000DBFFBDE83840FFF7CFBC034B4FF42070E1
:102660001978FFF737FFF4E7E91200202DE9F04170
:102670000546FFF747FA431E0333044604D940F6E4
:10268000E2113B4802F06AF84FF4C022394B5A6617
:1026900003F598335A68012A04D137494A609A6988
:1026A0009207FCD18020FFF7B7FC052807D102F084
:1026B00057F802F063F84FF480322E4B1A672F4B15
:1026C00024F040749D4239D02D4B9D4239D002F008
:1026D00093F88542064603D90121284600F0B2F856
:1026E000284FFB6813F0060FFBD1D7F80880BC60B9
:1026F000BB68634013F4F81F26D12846FEF706FF97
:102700008020FFF789FC052814D102F09BF8A8422D
:10271000044604D940F63B21154802F01FF8FFF7A4
:1027200095F8C0F10201204602F022F8FFF76CFF95
:10273000FFF762FCAE4213D2BDE8F08144F00074B2
:10274000C5E744F08074C2E740F62A21084802F049
:1027500005F88020C7F80880FFF75EFC052805D043
:10276000BDE8F0410121002000F06CB83546CCE70F
:10277000254F00000090005000E0015040420F0043
:1027800080841E0000000150034A0179D36E23F0BB
:1027900030030B43D366704700400050F8B5044641
:1027A000244BD3F88420D006FBD4D3F88430C3F371
:1027B00081139C423CD002F025F8012C05460BD138
:1027C0001D4B984204D94FF4F7611C4801F0C6FF35
:1027D0000121284601F0CCFF02F09BFA4FF0007275
:1027E000174B07465A66204601F0CDFF4FF4806331
:1027F000104E621E93403367736E9A0103D4D6F86D
:1028000084309B060AD5384602F07EFA022C0FD19E
:102810002846BDE8F840002101F0AABFD6F8843070
:102820009906E9D540F2C671044801F097FFE3E745
:10283000F8BD00BF00400050005A6202714F000016
:102840000060005010B50C4608B901F0DBFF074BE3
:1028500021461B783BB1064B984204D80120BDE8C5
:102860001040FFF79BBF0220F9E700BFEB120020EA
:10287000005A620238B54FF00042264B26495A668C
:1028800001224A604AF6CD3103F50B235D6C1964D1
:10289000154030BB9968C9070BD4002401221F4B97
:1028A0005A6015B11E4B1F4A1A6401F06DFF204695
:1028B00038BD1A498A601C4AD96ACC0705D49042AF
:1028C00001D10724EAE70130F6E79042E5D1F8E7C5
:1028D0000132DC6A14F0080406D08A42F8D10724D9
:1028E000DFE700221049F4E78A42F8D020220B4BA0
:1028F0000B495A620122A3F580539A6023460A4A83
:10290000486A800603D49342E9D00133F8E7934242
:10291000C7D1E4E700900050005009500060095012
:10292000004009503254FFFF40420F0038B54FF0CD
:102930000042174B174C5A66012203F50C235A60CC
:102940004AF6CD33656C2364437893401343124AAF
:10295000D363C3788178A2689B0043EA011322F015
:1029600074021343A3600279837943EA022323614B
:102970004279C37943EA022363610078FFF77AFF63
:10298000EB0744BF054B236401F0FEFE012038BD78
:102990000090005000400950004000503254FFFFAA
:1029A000F8B506460F461546002A6AD003F0030420
:1029B000836823F44073836002F0ABF9B26882EA63
:1029C000042303F440735340B36002F09DF937B918
:1029D0002D4B9E420DD12E20FFF7CEF90746B3684E
:1029E0009A0717D5012C1BD0022C27D064B9274B8E
:1029F00017E0274B9E4201D12F20EDE740F22F1127
:102A0000244801F0ABFEB3684FF4B271214801F0E5
:102A1000A5FE08E0012C13D0022CE7D11E4B00E0EC
:102A20001E4B9F42F0D91E4B1B5D6B430AD140F2F7
:102A30007511BDE8F840174801F090BE194BF0E75A
:102A4000194BEEE7A3EBC504013C3C44B4FBF3F4A3
:102A5000013C0CD540F27B110E4801F07FFE4FF493
:102A6000BE710C4801F07AFEB368B461F8BDB4F5EC
:102A7000007FF4D2B3689B07F7D5002C08BF012470
:102A8000F3E740F21511D4E70000015A80841E00DC
:102A900000800650BD4F0000002D3101404B4C001E
:102AA00009500000809FD5004054890038B50B4B79
:102AB000044698420D4607D0094B984204D040F294
:102AC0009511084801F04AFE043425B104F58054FC
:102AD0000123236038BD04F50054F9E70000015AD2
:102AE00000800650BD4F000038B5154B0446984293
:102AF0000D4607D0134B984204D04FF4D5711248BD
:102B000001F02CFE0023114A236404F50053DA631C
:102B10006A7804F108037AB903F5805302221A6037
:102B20002046D5E901122B7BFFF73AFF2046297892
:102B3000BDE83840FFF7BABF03F50053EEE700BF2A
:102B40000000015A00800650BD4F0000FFFF1F002B
:102B500070B5894B98420AD0884B98421DD088485E
:102B600040F2012101F0FAFD6FF0030070BD854BCA
:102B70009968C26B12F4C06F15D091050FD5FD2274
:102B80005A7009221A700022026493F90110012977
:102B900000D15A7093F90100E8E77B4BE8E756054E
:102BA000EFD5FE22ECE71C78082C00F2E180DFE88C
:102BB00014F009001F004500530070007E009C00C7
:102BC000A700D6004C880A88E5060AD5120A02F04A
:102BD000060242F0F002012119704263C160012037
:102BE000C4E702F0FE02A10748BF42F00102F2E78B
:102BF000160608D5802100F50052D1634FF6087201
:102C00001A80022318E05506E9D5402400F5005249
:102C1000D4634A88D40604D502221A700B78436321
:102C2000DDE796076AD507221A701B7901EBC3030B
:102C30001B89012BD3D10823C360D0E71506D9D453
:102C40005406CCD5402400F50052D4634A8892073C
:102C500054D503221A708CE74C880A88E60643BFD5
:102C6000120A02F0060242F0F00202F0FE026507CC
:102C700009D51C7942F0010201EBC401098901293F
:102C800004BF0821C160042119700123C36042639D
:102C9000A5E71406AED45206A1D5402400F5005293
:102CA000D4634A88560729D507221A7097E71A79FC
:102CB0005D8801EBC2042689AE420FD800240132A0
:102CC000D2B21A715C804C886507C2D4E40702D482
:102CD000012A7FF64EAF08221A7092E76268691CDB
:102CE0005980525D42630622DFE7160682D45506FC
:102CF0007FF575AF402400F50052D4630522A9E7A3
:102D000094067FF56CAF456A204C46691A793440C9
:102D1000B4F5003F04BF466A4FF4005601EBC20110
:102D200000F500540A8908BFE6632026E6635C8844
:102D3000A24281BF4968661C5E800D5559888A424F
:102D4000C9D90424012AC46004D0013A914201D1B6
:102D50000822C2601A78092A3FF415AF3FE7D2056E
:102D60007FF53DAF4FF4807100F50052D16308E765
:102D70004FF609321A8006E70000015A008006501B
:102D8000BD4F0000801100208C11002020000200A7
:102D900038B5294B044698420D4607D121B940F277
:102DA0006A31264801F0DAFC254B13E0254B9842A6
:102DB0000DD040F26931214801F0D0FC25B940F234
:102DC0006A311E4801F0CAFC6FF0030038BD0029CB
:102DD0002AD01D4B2269D00744BF2022E2606A88B6
:102DE000910702D529890029EED0520702D52A8AF7
:102DF000002AE9D04FF480721A6000229D601A7197
:102E0000C023E3606369DB0514D4202204F500537A
:102E1000DA630E4A2046DA63236C43F4FC632364CE
:102E2000BDE83840FFF794BE40F26A31034801F034
:102E300095FCCEE7636AE5E70000015ABD4F00004C
:102E400080110020008006508C110020FFFF1F0021
:102E500038B5022805460C4603D94C210C4801F030
:102E60007DFCE378627821785B0143EA8203227972
:102E70000B4343EA02130C226A4302F1B04213638C
:102E8000012902BFA278034B43F8252038BD00BFBB
:102E90000D500000E880035008B54FF0B0435A6869
:102EA0006AB958B15B680BB101F06FFC01210D4BA1
:102EB000596001F06AFC4FF0B043D96008BD5B680F
:102EC0000BB101F062FC0028F0D101F05EFC4FF084
:102ED000B0430222DA6001F058FC0122024B5A6032
:102EE000ECE700BF001000580020005810B54FF06C
:102EF000B0414B680BB101F048FC01220B4BC47888
:102F00005A608378934043EA8403447823430479E6
:102F100043EA0413447943EAC4038B60044B5A60C8
:102F20000378C3F10203CB6010BD00BF002000583E
:102F300000100058024B1868C0F30740704700BFEC
:102F40000080E00F10B5044620B94FF40371124819
:102F500001F004FC2378E3B1013BDBB2022B05D87E
:102F60000E4AD35C6278D340DB0704D440F20D21D3
:102F7000094801F0F3FB0122617823788A4030216F
:102F80004B4342F2100103F1A04303F570335A5052
:102F900010BD40F2FF13E5E75A5000000651000053
:102FA000034BD3F82424D3F820041040704700BF0B
:102FB00000C003502DE9F041037804460D46174642
:102FC0000BB3013BDBB2022B05D82C4AD35C6278F1
:102FD000D340DB0703D45921294801F0BFFB294B1B
:102FE000D3F810331BB15A21254801F0B7FB0F2D40
:102FF0000CD8DFE805F0332E2E2E2E2E2E2E2E2E60
:103000002E2E2E2E2E2E40F2FF13E0E7AE211C486E
:1030100001F0A4FB4FF000082046E7B101F03CFCB2
:1030200063782678072B06EB46064FF00F014FEA30
:10303000061615D89B00144808FA03F2994030444C
:1030400001F0ABFBBDB920468FB1BDE8F04101F006
:1030500023BCA846E0E7FFF775FFE1E7A846DFE7F6
:10306000083B9B00094808FA03F29940E7E7BDE8EE
:10307000F041FFF767BFBDE8F08100BF06510000D7
:10308000B050000000C0035004C003500CC00350F7
:1030900070B50D46E8B1036813F4E07F03F03F0616
:1030A000C3F3821210D0012A13D10B4C9B0603D517
:1030B00091210A4801F052FB45B104F580540123E7
:1030C0000020B340236070BD054CEFE704F50054C9
:1030D000F5E70E20F7E700BF6880005009510000B7
:1030E0006480005030B58BB06C466C4D0FCD0FC472
:1030F0002B686B4A2360FF238DF80130D2F84C31E6
:1031000013F4802340F0BE80D2F850218DF80130B6
:103110009DF801306C46FF2B08BF19236846614DAE
:103120008DF80130FFF728F93220FFF787F90FCD2E
:103130000FC40FCD0FC495E8030084E80300584B7B
:10314000D3F84C21110340F18880A3F5FE431C887D
:10315000B4F5807F28BF8C248DF81940FFF706F95D
:10316000044484F3080450488DF81840FEF7D4F95D
:103170006846FFF70DF83220FFF766F94B48FFF776
:1031800075FA4B4C01213520FEF7CCFD0020FFF7EE
:1031900061F9FFF721FA236F002023F0070343F0C2
:1031A00003032367FFF742FA236F23F47443236773
:1031B000404BD3F8FC20D20153D4D4F88030C4F86B
:1031C00080303B4BD3F8202122F0030242F0020270
:1031D000C3F82021D3F8242122F0070242F0020292
:1031E000C3F82421D3F8802122F0030242F0010227
:1031F000C3F88021D3F8402122F0030242F00202FA
:10320000C3F84021D3F8602122F0030242F0020209
:10321000C3F86021D3F8402222F0030242F00202F8
:10322000C3F84022D3F8002222F0070242F0020243
:10323000C3F80022D3F8202222F0030242F0010258
:10324000C3F82022FEF78CFF4FF0E0220020136924
:1032500043F0040313610BB030BDD3F85041E4B226
:103260007AE7D3F8FC2022F08072C3F8FC20D4F86F
:103270008020C4F88020D3F8FC2042F08072C3F88C
:10328000FC209EE74FF07E6393F89C2093F99C30DE
:10329000002BFFF63DAF8DF8012039E758510000B3
:1032A0000080E00F6C51000000F0490200B4C4043B
:1032B0000080005000ED00E007B56B46054A10683D
:1032C000516803C36846FFF731FB002003B05DF887
:1032D00004FB00BF9451000013B50024064A684661
:1032E000536F43F00103536700948DF80440FFF7D8
:1032F0004BFA204602B010BD0040005010B54028E7
:10330000044608D801236109074A04F01F04A340BA
:1033100042F8213010BD4FF49471044801F01EFAB8
:10332000002CF7DBEEE700BF00E100E0B851000041
:1033300010B53F28044604D940F23311064801F085
:103340000DFA064B621153F8220004F01F04E0400E
:10335000C04300F0010010BDB851000000E100E0E2
:10336000002808DB01224309034900F01F008240C6
:10337000603341F82320704700E100E038B500F1E8
:103380001003502B04460D4604D94FF4EB710D4841
:1033900001F0E4F90F2D04D940F2D711094801F0EA
:1033A000DDF9002CACBF04F16044074B4FEA051572
:1033B000EDB2ABBF04F5614404F00F0484F8005390
:1033C0001D5538BDB851000014ED00E010B501F0F6
:1033D000A9FC0A4B1A786AB901226FF004041A702A
:1033E00001F09BFC204605210134FFF7C7FF402C6C
:1033F000F8D110BDBDE8104001F08FBCEC120020E8
:1034000070B501F08FFC144E05463478FCB9134BAF
:103410001C60134B1C60134B1C6000F047F801202C
:1034200001F00DFD01F03AFC0F4B0246186020B987
:10343000284601F072FC232070BD234640F2E7319C
:103440000A4800F0F9FC0A4B186001233370284643
:1034500001F063FC0020EFE7EF120020A011002034
:103460009C110020A8110020A411002018FCFFFFCF
:103470009811002000B58DB001238DF80F3001F0B8
:1034800025FB00230146CDE90033074A0DF10F0368
:1034900004A801F0A9FC18B99DF80F30002BFBD14E
:1034A0000DB05DF804FB00BFE34D00001FB5002424
:1034B0001C4B18689A880290D3F806009B7A0090FB
:1034C0001948ADF80C208DF8043001F077F98DF82B
:1034D000084001F07AF98DF80C0002A8FFF706FD0C
:1034E000694601208DF80040FFF7B2FC4FF0B04272
:1034F00040F2FF31936923F47F7323F00303936158
:103500000A4B5961936A13F00803FBD1136201203F
:10351000FFF7C2FC0C20FFF723FF0C20FFF7EEFEA5
:1035200004B010BD8E5200009C51000000200058D5
:1035300010B501F0F7FB4FF0B04304465B695A0643
:10354000074A03F0010003F0510348BF40F00200B6
:10355000536101F0CDFA2046BDE8104001F0DDBB1B
:103560000020005810B5044601F06CF94FF47A724F
:103570009042B0FBF2F105D23621BDE810400C4874
:1035800001F0ECB80B4BB3FBF1F30B49884201D9C6
:103590003C21F2E702FB04F0B0FBF3F0022806D96D
:1035A000BDE810400323B0FBF3F0FCF7C9BD10BD2C
:1035B0009952000040420F00E7CD9A3B81F0004154
:1035C00002E000BF83F0004330B54FEA41044FEA08
:1035D000430594EA050F08BF90EA020F1FBF54EAA3
:1035E000000C55EA020C7FEA645C7FEA655C00F03F
:1035F000E2804FEA5454D4EB5555B8BF6D420CDD10
:103600002C4480EA020281EA030382EA000083EA92
:10361000010180EA020281EA0303362D88BF30BD32
:1036200011F0004F4FEA01314FF4801C4CEA113188
:1036300002D0404261EB410113F0004F4FEA0333E7
:103640004CEA133302D0524263EB430394EA050F72
:1036500000F0A780A4F10104D5F1200E0DDB02FAE1
:103660000EFC22FA05F2801841F1000103FA0EF275
:10367000801843FA05F359410EE0A5F120050EF13B
:10368000200E012A03FA0EFC28BF4CF0020C43FA6C
:1036900005F3C01851EBE37101F0004507D54FF079
:1036A000000EDCF1000C7EEB00006EEB0101B1F5C9
:1036B000801F1BD3B1F5001F0CD349085FEA30000F
:1036C0004FEA3C0C04F101044FEA445212F5800F1A
:1036D00080F09A80BCF1004F08BF5FEA500C50F1B7
:1036E000000041EB045141EA050130BD5FEA4C0C9A
:1036F000404141EB0101013C28BFB1F5801FE9D2F7
:1037000091F0000F04BF01460020B1FA81F308BF19
:103710002033A3F10B03B3F120020CDA0C3208DDE5
:1037200002F1140CC2F10C0201FA0CF021FA02F1C0
:103730000CE002F11402D8BFC2F1200C01FA02F130
:1037400020FA0CFCDCBF41EA0C019040E41AA2BF55
:1037500001EB0451294330BD6FEA04041F3C1CDA1D
:103760000C340EDC04F11404C4F1200220FA04F03D
:1037700001FA02F340EA030021FA04F345EA0301E7
:1037800030BDC4F10C04C4F1200220FA02F001FAA9
:1037900004F340EA0300294630BD21FA04F029462B
:1037A00030BD94F0000F83F4801306BF81F48011C4
:1037B0000134013D4EE77FEA645C18BF7FEA655C37
:1037C00029D094EA050F08BF90EA020F05D054EA09
:1037D000000C04BF1946104630BD91EA030F1EBF0E
:1037E0000021002030BD5FEA545C05D14000494112
:1037F00028BF41F0004130BD14F580043CBF01F505
:10380000801130BD01F0004545F0FE4141F47001EA
:103810004FF0000030BD7FEA645C1ABF19461046C5
:103820007FEA655C1CBF0B46024650EA013406BFC6
:1038300052EA033591EA030F41F4002130BD00BF85
:1038400090F0000F04BF0021704730B54FF4806442
:1038500004F132044FF000054FF0000150E700BFC3
:1038600090F0000F04BF0021704730B54FF4806422
:1038700004F1320410F0004548BF40424FF000010F
:103880003EE700BF42004FEAE2014FEA31014FEA52
:1038900002701FBF12F07F4393F07F4F81F06051A1
:1038A000704732F07F4208BF704793F07F4F04BFEC
:1038B00041F40021704730B54FF4607401F00045C9
:1038C00021F000411CE700BF50EA010208BF704729
:1038D00030B54FF000050AE050EA010208BF70471A
:1038E00030B511F0004502D5404261EB41014FF483
:1038F000806404F132045FEA915C3FF4D8AE4FF08B
:1039000003025FEADC0C18BF03325FEADC0C18BF6D
:10391000033202EBDC02C2F1200300FA03FC20FABE
:1039200002F001FA03FE40EA0E0021FA02F114440B
:10393000BDE600BF70B54FF0FF0C4CF4E06C1CEA24
:1039400011541DBF1CEA135594EA0C0F95EA0C0F95
:1039500000F0DEF82C4481EA030621EA4C5123EA08
:103960004C5350EA013518BF52EA033541F4801137
:1039700043F4801338D0A0FB02CE4FF00005E1FBEA
:1039800002E506F00042E0FB03E54FF00006E1FB34
:1039900003569CF0000F18BF4EF0010EA4F1FF0477
:1039A000B6F5007F64F5407404D25FEA4E0E6D41B7
:1039B00046EB060642EAC62141EA55514FEAC520C8
:1039C00040EA5E504FEACE2EB4F1FD0C88BFBCF544
:1039D000E06F1ED8BEF1004F08BF5FEA500E50F1F5
:1039E000000041EB045170BD06F0004646EA0101BB
:1039F00040EA020081EA0301B4EB5C04C2BFD4EBED
:103A00000C0541EA045170BD41F480114FF0000EE5
:103A1000013C00F3AB8014F1360FDEBF002001F053
:103A2000004170BDC4F10004203C35DA0C341BDCCD
:103A300004F11404C4F1200500FA05F320FA04F09F
:103A400001FA05F240EA020001F0004221F00041D3
:103A500010EBD37021FA04F642EB06015EEA430E46
:103A600008BF20EAD37070BDC4F10C04C4F1200576
:103A700000FA04F320FA05F001FA04F240EA020029
:103A800001F0004110EBD37041F100015EEA430EFA
:103A900008BF20EAD37070BDC4F1200500FA05F21A
:103AA0004EEA020E20FA04F301FA05F243EA020399
:103AB00021FA04F001F0004121FA04F220EA0200A8
:103AC00000EBD3705EEA430E08BF20EAD37070BDEE
:103AD00094F0000F0FD101F00046400041EB0101CE
:103AE00011F4801F08BF013CF7D041EA060195F0B0
:103AF000000F18BF704703F00046520043EB03036A
:103B000013F4801F08BF013DF7D043EA0603704756
:103B100094EA0C0F0CEA135518BF95EA0C0F0CD061
:103B200050EA410618BF52EA4306D1D181EA0301A7
:103B300001F000414FF0000070BD50EA410606BFA1
:103B40001046194652EA430619D094EA0C0F02D1E6
:103B500050EA013613D195EA0C0F05D152EA03362B
:103B60001CBF104619460AD181EA030101F0004149
:103B700041F0FE4141F470014FF0000070BD41F092
:103B8000FE4141F4780170BD70B54FF0FF0C4CF46C
:103B9000E06C1CEA11541DBF1CEA135594EA0C0F8B
:103BA00095EA0C0F00F0A7F8A4EB050481EA030ED8
:103BB00052EA03354FEA013100F088804FEA0333BF
:103BC0004FF0805545EA131343EA12634FEA02228D
:103BD00045EA111545EA10654FEA00260EF000414E
:103BE0009D4208BF964244F1FD0404F5407402D2A0
:103BF0005B084FEA3202B61A65EB03055B084FEA31
:103C000032024FF480104FF4002CB6EB020E75EB2D
:103C1000030E22BFB61A754640EA0C005B084FEA55
:103C20003202B6EB020E75EB030E22BFB61A7546D2
:103C300040EA5C005B084FEA3202B6EB020E75EB1D
:103C4000030E22BFB61A754640EA9C005B084FEA95
:103C50003202B6EB020E75EB030E22BFB61A7546A2
:103C600040EADC0055EA060E18D04FEA051545EA91
:103C700016754FEA06164FEAC30343EA52734FEA3A
:103C8000C2025FEA1C1CC0D111F4801F0BD141EAB3
:103C900000014FF000004FF0004CB6E711F4801F18
:103CA00004BF01430020B4F1FD0C88BFBCF5E06FF8
:103CB0003FF6AFAEB5EB030C04BFB6EB020C5FEA08
:103CC000500C50F1000041EB045170BD0EF0004E5D
:103CD0004EEA113114EB5C04C2BFD4EB0C0541EA8F
:103CE000045170BD41F480114FF0000E013C90E68C
:103CF00045EA060E8DE60CEA135594EA0C0F08BF50
:103D000095EA0C0F3FF43BAF94EA0C0F0AD150EA4E
:103D100001347FF434AF95EA0C0F7FF425AF1046E1
:103D200019462CE795EA0C0F06D152EA03353FF409
:103D3000FDAE1046194622E750EA410618BF52EA86
:103D400043067FF4C5AE50EA41047FF40DAF52EA5A
:103D500043057FF4EBAE12E74A0011D212F50012D0
:103D600011D20DD56FF47873B3EB62520ED44FEAD3
:103D7000C12343F0004343EA505323FA02F0704753
:103D80004FF00000704750EA013002D14FF0FF3091
:103D900070474FF0000070474FEA4102B2F1E04334
:103DA00024BFB3F5001CDCF1FE5C0DD901F0004C22
:103DB0004FEAC0024CEA5070B2F1004F40EB830072
:103DC00008BF20F00100704711F0804F21D113F19E
:103DD0003872BCBF01F00040704741F480114FEAD7
:103DE0005252C2F11802C2F1200C10FA0CF320FA60
:103DF00002F018BF40F001004FEAC1234FEAD3237D
:103E000003FA0CFC40EA0C0023FA02F34FEA4303E6
:103E1000CCE77FEA625307D150EA01331EBF4FF06F
:103E2000FE4040F44000704701F0004040F0FE408A
:103E300040F40000704700BF53B94AB9002908BFD9
:103E400000281CBF4FF0FF314FF0FF3000F082B967
:103E5000ADF1080C6DE904CE00F006F8DDF804E0E1
:103E6000DDE9022304B070472DE9F04F099D0C46AF
:103E7000002B4DD18A420F4684469646B2FA82F311
:103E800060D94BB102FA03FEC3F120029F4000FA51
:103E900003FC20FA02F217434FEA1E461FFA8EF483
:103EA0004FEA1C42B7FBF6F106FB117701FB04F069
:103EB00042EA0742904208D91EEB020201F1FF37A5
:103EC00002D2904200F231813946121A1FFA8CFC5C
:103ED000B2FBF6F006FB102200FB04F44CEA024CA5
:103EE000644508D91EEB0C0C00F1FF3202D2644588
:103EF00000F21E81104640EA0140ACEB040C0021A8
:103F000025B12CFA03F30022C5E90032BDE8F08F99
:103F10008B4205D90DB1C5E9000100210846F5E73E
:103F2000B3FA83F100294DD1A342C0F0F38090424F
:103F300080F0F080064623460846002DE6D0C5E90D
:103F40000063E3E7002B40F0A3808A1A4FEA1E4784
:103F50001FFA8EF60121B2FBF7F407FB14204FEA9B
:103F60001C4242EA004206FB04F090420FD91EEBCD
:103F7000020204F1FF382CBF4FF001094FF0000995
:103F8000904203D9B9F1000F00F0CC804446121AD8
:103F90001FFA8CFCB2FBF7F007FB102200FB06F6C1
:103FA0004CEA024C664508D91EEB0C0C00F1FF32BE
:103FB00002D2664500F2B3801046ACEB060C40EA34
:103FC00004409DE7C1F120068B4004FA01FE22FA6D
:103FD00006F720FA06FCF4408A401F434EEA0C0321
:103FE00000FA01FE4FEA17484FEA13491FFA87FC0F
:103FF000B4FBF8F008FB104449EA044400FB0CF958
:10400000A1450ED93C1900F1FF3A2CBF4FF0010B2E
:104010004FF0000BA14503D9BBF1000F00F08B80DE
:104020005046A4EB09041FFA83F9B4FBF8F308FB2C
:10403000134403FB0CFC49EA0444A44506D93C198B
:1040400003F1FF3801D2A4457BD8434643EA004040
:10405000A4EB0C04A0FB02984445CC46434602D393
:1040600006D1CE4504D20138B9EB020C68EB070348
:10407000002D6CD0BEEB0C0264EB030422FA01F3BA
:1040800004FA06F6CC4000211E43C5E900643DE772
:1040900002FA03FEC3F1200104FA03F200FA03FC62
:1040A000CC404FEA1E4720FA01F11FFA8EF6B4FB0E
:1040B000F7F00A4307FB1044110C41EA044100FBEE
:1040C00006F48C420ED91EEB010100F1FF382CBF23
:1040D0004FF001094FF000098C4202D9B9F1000FED
:1040E0002CD04046091B92B2B1FBF7F407FB141128
:1040F00042EA014204FB06F1914207D91EEB02029B
:1041000004F1FF3801D291421ED84446521A44EAC3
:10411000004120E7861A64EB030301200DE7F44415
:1041200002384AE7023C724431E702397244CCE675
:10413000F4440238DFE602383C4472E70238714446
:10414000D0E7023B3C4481E7023C7244DEE729466B
:10415000DCE600BF704700BF08B5064B044613B14C
:104160000021AFF30080044B1B6803B19847204641
:1041700000F0F5FA00000000E412002070B50D4DCB
:1041800000260D4C641BA410A64209D10B4D00263D
:104190000B4C00F065FE641BA410A64205D170BD57
:1041A00055F8043B01369847EEE755F8043B0136D5
:1041B0009847F2E78013002080130020801300202E
:1041C0008413002082B005488DED000B019B23F085
:1041D00000431844C00F02B0704700BF00001080B9
:1041E00051EC100B024621F0004343EC102B7047BA
:1041F00010B52DED028BB0EE408AF0EE608A0446D9
:1042000000F01EF90460B0EE480AF0EE680ABDEC5A
:10421000028B10BD00B553EC102B83B090B110464B
:1042200003F10041CDE9000110461946DDE9002304
:10423000FFF780FB41EC100B222003B05DF804EB8C
:10424000FFF7D6BF10461946ECE700BF78482DE9C6
:10425000F84F55EC104BA84322462B4600F0A780A0
:10426000002D214662DD2C1500F0D180C3F313032D
:10427000E207A4F2FF3743F4801303D4CA0F4900C6
:1042800002EB43035B0000264A00162403EBD173C4
:10429000B6467F104FF400110EEB0100984203DC8C
:1042A0001B1A01EB000E0E445B00013C4FEA51016A
:1042B00003EBD2734FEA4202EED120254FF00040CB
:1042C000A04615E0944548D89E4546D1BCF1000F64
:1042D0000CEB000843DB0021A2EB0C02044401EBD1
:1042E000D271013D4FEA50004FEA42020B463AD0EC
:1042F0009E4508EB000CE5DABCF1000F0CEB000862
:1043000008DB9445F146A3EB0E010CD90139CE46EA
:104310004900E1E7B8F1000FF3DB94450EF1010924
:10432000A3EB0E01F2D84900CE46D5E725F00040B8
:1043300020433AD0002D5FD1CA0A153B4905002A17
:10434000FAD0D6021C460846134661D520254FF008
:10435000FF32E840A41A034388E75900BFE7B8F1E9
:10436000000FDADAB7E7114312D0DFF8CCA0DFF89C
:10437000CCB0DAE90001DBE90023DAE90089FFF7D4
:1043800021F902460B464046494600F0C9F8D0B92B
:104390006508F307274948BF45F0004501EB660172
:1043A0002A4601EB075343EC102BBDE8F88F20465B
:1043B0002946FFF7BFFA22462B46FFF705F941ECE5
:1043C000100BBDE8F88FB4F1FF3FDAE90001DBE93B
:1043D000002328D0FFF7F8F802460B46DAE90089F7
:1043E0004046494600F092F8F8B1A21C04F10205DB
:1043F00008BF01366D08CCE720462946FFF7E2F8F2
:1044000002460B46FFF7C0FB41EC100BCDE7104610
:1044100000215B000A460131DD02FAD5C1F1200519
:1044200000FA01F195E70136B3E70134B0E700BFC8
:104430000000F07F0000E03FF8120020F0120020A2
:10444000014B1868704700BF281300204FF0FF3C55
:1044500006E000BF4FF0010C02E000BF4FF0010C7E
:104460004DF804CD4FEA410C7FEA6C5C4FEA430CF7
:1044700018BF7FEA6C5C1BD001B050EA410C0CBF46
:1044800052EA430C91EA030F02BF90EA020F0020A8
:10449000704710F1000F91EA030F58BF994208BF0F
:1044A00090422CBFD8176FEAE37040F001007047CC
:1044B0004FEA410C7FEA6C5C02D150EA013C07D123
:1044C0004FEA430C7FEA6C5CD6D152EA033CD3D06E
:1044D0005DF8040B704700BF8446104662468C4668
:1044E0001946634600E000BF01B5FFF7B7FF00289B
:1044F00048BF10F1000F01BD4DF808EDFFF7F4FFC4
:104500000CBF012000205DF808FB00BF4DF808ED4E
:10451000FFF7EAFF34BF012000205DF808FB00BF71
:104520004DF808EDFFF7E0FF94BF012000205DF893
:1045300008FB00BF4DF808EDFFF7CEFF94BF012048
:1045400000205DF808FB00BF4DF808EDFFF7C4FF41
:1045500034BF012000205DF808FB00BF4FEA410C8A
:104560007FEA6C5C02D150EA013C0AD14FEA430C6D
:104570007FEA6C5C02D152EA033C02D14FF00000AA
:1045800070474FF00100704738B564220D46002196
:10459000044600F029F9002384F8805084F8643040
:1045A0002046C4F8843038BD10B588B090F880300B
:1045B00000245B00ADF80C300423ADF80E300DF193
:1045C0000703049301238DF807100DF10B02D0F8B7
:1045D000840003A9CDF816408DF80B40ADF81E40BD
:1045E000ADF814300692ADF81C30FDF71FF918B97C
:1045F0009DF80B0008B010BD2046FBE708B5C0F8D9
:1046000084100021FFF7D0FFA0F1BA0358425841AF
:1046100008BDF0B587B005460E4617461C46FFF7A5
:10462000C3FF9DF8303000EA07029C4042EA0403D1
:104630008DF801300023CDF80E30CDF81230ADF8F2
:10464000163095F88030D5F884005B00ADF8043062
:104650000123ADF80630022301A98DF80060CDF8E2
:1046600008D0ADF80C30FDF7E1F8B0FA80F0400961
:1046700007B0F0BD07B501290B4608D80522132164
:104680000092DF22FFF7C5FF03B05DF804FB0020B6
:10469000FAE784B038B505AD85E80E009DF8141032
:1046A0000446FFF7E7FFF8B19DED070A2046FCF747
:1046B000D9FDC8B19DED060A2046FCF7FDFD98B175
:1046C0009DED080A2046FBF73FFD68B19DED090A04
:1046D0002046FBF7CDFD38B19DED0A0A2046BDE826
:1046E000384004B0FBF770BD0020BDE8384004B08E
:1046F000704737B50C4613210546FFF755FF4307B2
:1047000002D57F2C28BF7F24002223462321284660
:104710000092FFF77EFF03B030BD704708B5FCF78D
:1047200039FFBDE80840FCF761BE08B500F006F8A7
:10473000BDE80840FEF764BE704770470F20704721
:10474000FEE700239A4200D1704710B550F823408D
:1047500041F8234001339A42F8D110BDFEE7FEE74D
:1047600008B500F081F8BDE808400021FDF7B4BAB3
:104770000029CCBF01210021FDF7AEBA02214FF480
:104780002070FDF7A7BE704770474FF0B0435A68DE
:1047900012B19A6A002AFAD1704770B505461446DC
:1047A0000E4600F0B6FA2B685C4034405C402C604A
:1047B000BDE8704000F0A8BA00F003B80121FEF790
:1047C00067BC00207047FEF78DBC0020704708B51D
:1047D000FCF7E2FDFFF7A2FFFFF7A7FFFFF7ACFF33
:1047E000BDE80840FFF7A9BF02440346934200D149
:1047F000704703F8011BF9E7014B1868704700BFC9
:104800001C1300200A4B1B6F03F00703013B032B13
:1048100003D8DFE803F00A030608FEE7054B186833
:104820007047054BFBE7054870470548704700BFD8
:10483000008000501C1300202413002080D5430268
:10484000002D310108B5FFF7DDFF054B1B6FC3F3EA
:1048500003330133B0FBF3F0024B186008BD00BF17
:1048600000800050181300200048704700B4C404B2
:1048700000487047002D3101014B1868704700BF98
:10488000241300200048704780D54302014B18686C
:10489000704700BF2013002010B5044620B940F235
:1048A000A3111248FFF75AFF2378E3B1013BDBB2B3
:1048B000022B05D80E4AD35C6278D340DB0704D4C0
:1048C0004FF4D2710948FFF749FF0122617823783C
:1048D0008A4030214B4341F2100103F1A04303F51C
:1048E00070335A5010BD40F2FF13E5E75A500000F4
:1048F0000651000030B50E4C416123688BB9206031
:1049000083600DE0891A9A681D4641616AB11346B9
:104910005A698A42F6D935B1A860521A83605A6141
:1049200030BD0025F4E72060F7E798608260F7E784
:10493000A01100200D490B68A0B10022A3B1834251
:1049400003D1836822B90B6003E01A469B68F5E740
:10495000936083680BB9002070475A6941690A4423
:104960005A61F8E72220704702207047A01100200A
:1049700038B500F05DFA0025084B094C1A68236829
:10498000C31A2AB123B15169994203D3C91A51619B
:10499000206038BD55615B1A9268F2E7A0110020D3
:1049A0009C11002038B5154D2B682BB35B69A3B162
:1049B000134A022014681C4400F041FA204600F01B
:1049C0003BF900230F492A680B7022B1D088800779
:1049D0000AD501230B70002038BD022000F02FFA09
:1049E000022000F083F9ECE79268002AF3D05069C6
:1049F0000344012BEAD9EEE72220EDE7A0110020C5
:104A00009C110020EE12002070B516469DF814206F
:104A1000C0E903360271049ABDF818300260002222
:104A200004460D468260C380EEB900F001FA2844C6
:104A3000A0619DB12E4600F06CF90546FFF798FF86
:104A400031462046FFF756FF104B1B68A34201D1A9
:104A5000FFF7A8FF284600F057F902E0E368656118
:104A60007BB9002070BD00F0E3F93044A061002D57
:104A7000E0D1E3686561002BDDD0204621689847CE
:104A8000D9E7204621689847EBE700BFA011002036
:104A900038B50C460546A8B1A1B100230B7000F053
:104AA00041F90121084B1B6833B900F036F90020A9
:104AB00038BD9D4204D121702278002AF9D0F4E754
:104AC0009B68F1E72220F3E7A011002038B5002110
:104AD000044640F2E730054B4FF47A721D6800231C
:104AE000E5FB0401FFF7A8F938BD00BFA4110020C1
:104AF0002DE9F843C207044607D54B4A1368013332
:104B00001360FFF735FFFFF74DFFA30740F18A80E1
:104B100000F008F94FF0000805464646FFF728FF69
:104B2000424F3C680CB16369A3B10022404B012E97
:104B30001A7003D118F0020F18BF1E70FFF732FF72
:104B4000222802D1022000F0B9F82846BDE8F84337
:104B500000F0E3B823465A693AB91A7921799142AB
:104B600088BF1C469B68002BF5D1284600F0D5F87D
:104B70002569DDB100F05CF9A269A0EB02084FEAFB
:104B8000E873A84573F1000311DB23691344A361A3
:104B9000E36813B1204621689847B4F8068000F016
:104BA000C1F801360546FFF7E3FEBAE7A84600F074
:104BB000B9F881462046FFF7BDFE484600F0ADF843
:104BC0002369002BE4D0B5EB08054FEAE87363EBEB
:104BD0004303012D73F1000304DA4FF4C961154852
:104BE000FFF7BCFDA38B33B1E28B13449BB2B3F54B
:104BF0007A7F0FD2E38300F095F88046294620465D
:104C0000FFF778FEA369226940461344A36100F0D0
:104C100084F8BDE7A3F57A73E383A369013D013B03
:104C2000A361E8E7BDE8F883A8110020A0110020E7
:104C3000ED1200202E52000010B5044600F069F875
:104C40004FF0B042936A1907FCD4136A116C526991
:104C5000520604D4CA1A032A01D88B420ED1E21A92
:104C6000022A98BFDC1CB4F1FF3F38BF013C4FF073
:104C7000B0431C649A6942F040029A6100F044F823
:104C8000054A13783BB14FF0B041CB6B43F00203C0
:104C9000CB630023137010BD7C13002007B5064BB7
:104CA00001A9187900F044F8FFF78FFD019B23FA62
:104CB00000F003B05DF804FBAC510000820700F087
:104CC00001030AD50121084A43F0400311704FF057
:104CD000B041CA6B22F00302CA634FF0B0418A6947
:104CE00022EA03038B6170477C130020830742BFD5
:104CF0004022014B5A617047001000584FF40040A9
:104D000070474FF47A70704710B962B6BFF36F8F77
:104D10007047EFF3108072B6704780F31188BFF3CD
:104D20006F8F7047EFF31180302383F31188704742
:104D300009B100F002B82220704770B506460D4652
:104D4000FFF7F0FF04461C2E48D8DFE806F00F18E6
:104D5000471D20234726292C47472F324735384700
:104D60003B473E474447474747474100FFF74AFD17
:104D7000002628602046FFF7D0FF304670BD4FF474
:104D8000C070FCF7F9FFF3E74FF42070F9E74FF438
:104D90004070F6E74FF46070F3E74FF40070F0E70F
:104DA0004FF48060EDE74FF49060EAE74FF4C060A5
:104DB000E7E74FF4F060E4E74FF4B060E1E74FF469
:104DC000D060DEE74FF4E060DBE74FF4A060D8E7A7
:104DD0004FF48070D5E74FF40860D2E70020212619
:104DE000C7E700230B707047F0B587B01F4600235C
:104DF0000D46164604468DF81730A8B1C3610DF173
:104E00001701FFF745FE9DF817207AB9BDF8343039
:104E1000294602939DF830302046CDE90073334691
:104E2000FFF7F2FD07B0F0BD2220FBE70320F9E712
:104E30004FF0B0439A6A1207FCD4186A7047820791
:104E40004FF0B04200F00103916948BF43F04003C6
:104E50000B43936170470000000000000000000059
:104E6000F8B500BFF8BC08BC9E467047F8B500BF57
:104E7000F8BC08BC9E467047433A2F557365727361
:104E80002F562F53696D706C69636974795374750B
:104E900064696F2F53444B732F73696D706C696332
:104EA0006974795F73646B2F706C6174666F726D77
:104EB0002F6472697665722F6770696F2F737263E2
:104EC0002F736C5F6770696F2E63001FFF0C433A8E
:104ED0002F55736572732F562F53696D706C69630C
:104EE00069747953747564696F2F53444B732F73CE
:104EF000696D706C69636974795F73646B2F706C32
:104F00006174666F726D2F6472697665722F693293
:104F10006373706D2F7372632F736C5F6932637389
:104F2000706D2E6300433A2F55736572732F562FA1
:104F300053696D706C696369747953747564696FD2
:104F40002F53444B732F73696D706C696369747967
:104F50005F73646B2F706C6174666F726D2F656D1B
:104F60006C69622F7372632F656D5F636D752E635D
:104F700000433A2F55736572732F562F53696D7026
:104F80006C696369747953747564696F2F53444B0A
:104F9000732F73696D706C69636974795F73646B87
:104FA0002F706C6174666F726D2F656D6C69622F06
:104FB0007372632F656D5F656D752E6300433A2FC5
:104FC00055736572732F562F53696D706C696369E1
:104FD000747953747564696F2F53444B732F7369DD
:104FE0006D706C69636974795F73646B2F706C6149
:104FF00074666F726D2F656D6C69622F7372632FAB
:10500000656D5F6932632E630008091108433A2F0A
:1050100055736572732F562F53696D706C69636990
:10502000747953747564696F2F53444B732F73698C
:105030006D706C69636974795F73646B2F706C61F8
:1050400074666F726D2F656D6C69622F7372632F5A
:10505000656D5F727463632E6300633A5C7573659C
:1050600072735C765C73696D706C69636974797373
:10507000747564696F5C73646B735C73696D706C79
:1050800069636974795F73646B5C706C6174666F7B
:10509000726D5C7065726970686572616C5C696E76
:1050A000635C736C5F68616C5F6770696F2E68002A
:1050B000433A2F55736572732F562F53696D706C79
:1050C000696369747953747564696F2F53444B73C2
:1050D0002F73696D706C69636974795F73646B2F8A
:1050E000706C6174666F726D2F706572697068653F
:1050F00072616C2F7372632F736C5F68616C5F6792
:1051000070696F2E63001FFF0C633A5C75736572E4
:10511000735C765C73696D706C69636974797374C0
:105120007564696F5C73646B735C73696D706C69D3
:10513000636974795F73646B5C706C6174666F72C1
:105140006D5C656D6C69625C696E635C656D5F6208
:1051500075732E68000000000126000004000000A6
:105160000000000000010000000000000B00000033
:105170000B000000020000000000202000000000E2
:10518000030000008C8C3C000000000000000000C8
:105190000000000001030401010109031E000000DA
:1051A0000F0000000E0000001A0000000000005870
:1051B000120000009C510000433A2F557365727332
:1051C0002F562F53696D706C6963697479537475C8
:1051D00064696F2F53444B732F73696D706C6963EF
:1051E0006974795F73646B2F706C6174666F726D34
:1051F0002F736572766963652F696E746572727557
:1052000070745F6D616E616765722F7372632F7367
:105210006C5F696E746572727570745F6D616E61DA
:105220006765725F636F727465786D2E6300433AD1
:105230002F55736572732F562F53696D706C6963A8
:1052400069747953747564696F2F53444B732F736A
:10525000696D706C69636974795F73646B2F706CCE
:105260006174666F726D2F736572766963652F73F3
:105270006C65657074696D65722F7372632F736CE2
:105280005F736C65657074696D65722E63000100F3
:10529000000005000200000300433A2F55736572B9
:1052A000732F562F53696D706C69636974795374E9
:1052B0007564696F2F53444B732F73696D706C69FC
:1052C000636974795F73646B2F706C6174666F725D
:1052D0006D2F736572766963652F7564656C61798E
:1052E0002F7372632F736C5F7564656C61792E63C5
:0452F00000000000BA
:0852F400F4BEFF7F0100000081
:0C52FC0008530000F01200202600000003
:1053080059F3F8C21F6EA501000000000000F03F2D
:10531800008006500302030300000000A08601007D
:105328000000000000800650C0EA2101C0EA210107
:105338000080000000F049022C130020000000004B
:10534800AC110020141200207C1200200000000084
:105358000000000000000000000000000000000045
:105368000000000000000000000000000000000035
:105378000000000000000000000000000000000025
:105388000000000000000000FFFFFFFF0100000018
:08539800C51100009D11000089
:0400000300001445A0
:00000001FF
